:107000005FC0000078C0000076C0000074C00000BF
:1070100072C0000070C000006EC000006CC00000B4
:107020006AC0000068C00000C9C4000064C000005D
:1070300062C0000060C000005EC000005CC00000D4
:107040005AC00000E4C0000056C0000054C0000058
:1070500052C0000050C000004EC000004CC00000F4
:107060004AC0000048C0000046C0000044C0000004
:1070700042C0000040C000003EC000003CC0000014
:107080003AC0000038C0000036C0000034C0000024
:1070900032C0000030C000002EC000002CC0000034
:1070A0002AC0000028C0000026C00000473E603E05
:1070B000043F603E043F953EB73E043FD73EE93E65
:1070C00011241FBECFEFDAE0DEBFCDBF11E0A0E09C
:1070D000B1E0E2E9FEE702C005900D92AA3AB107DD
:1070E000D9F721E0AAEAB1E001C01D92A03CB207A5
:1070F000E1F75ED3CCC684CF84E08093E900809131
:10710000E80085FD0EC08091E8008B778093E80051
:107110008091E80082FDF3CF8EB38111F9CF80E03A
:1071200008958091F100089593E09093E900909183
:10713000E80095FF0AC08093F1005D9884E690E036
:107140009093AF018093AE0108959091E8009E77EF
:107150009093E8009091E80090FDEDCF9EB39111DF
:10716000F9CF0895F89410926F0010928100109258
:1071700085001092840081E085BF15BE47985D9A16
:10718000289A0C94000008958091B4019091B50163
:1071900001969093B5018093B401292F97FF02C007
:1071A0002EEF291B220F281710F447980895479AAD
:1071B000089584B7877F84BF88E10FB6F8948093E1
:1071C0006000109260000FBE90E080E80FB6F89467
:1071D00080936100909361000FBE81E085BF82E0E3
:1071E00085BF3F9A209A559AE1E6F0E090E89083B7
:1071F000108247985D9A289A109289009AEF90938E
:10720000880080936F0083E080938100BFC31F924A
:107210000F920FB60F9211242F938F939F93EF939A
:10722000FF9310928500109284008091AE0190919E
:10723000AF01009741F001979093AF018093AE01A9
:10724000892B09F45D9A8091AC019091AD01009772
:1072500041F001979093AD018093AC01892B09F423
:10726000289AE0E0F0E085919491019649F08091B0
:10727000AA019091AB0101969093AB018093AA0172
:10728000FF91EF919F918F912F910F900FBE0F90D3
:107290001F90189542E061EC82E00BD342E161E877
:1072A00083E007D342E160E884E003C38091B80142
:1072B000982F9F77913239F59091B901903291F0E2
:1072C000913209F5813AF9F48091E800877F809343
:1072D000E80067E070E083E091E021D48091E8006D
:1072E0008B770FC0813279F48091E800877F80939B
:1072F000E80067E070E083E091E06AD48091E80004
:107300008E778093E80008954F925F926F927F92FC
:107310008F929F92AF92BF92CF92DF92EF92FF92A5
:10732000CF93DF9384E08093E9008091E80082FFAF
:1073300030C2289884E690E09093AD018093AC0130
:10734000DBDED82F853481F48CE49DE19093AB0192
:107350008093AA0107B600FCFDCFF999FECF81E129
:1073600080935700E89503C0843521F4C5DE8DE095
:10737000DBDEE6C18C34D9F38035C9F3843721F4E0
:1073800084E4D2DE80E0F4CF813611F489E5F0CFD9
:10739000813491F4B1DEC82FAFDE90E0880F991FE1
:1073A0002C2F30E0322F2227330F822B932BAA274A
:1073B00097FDA095BA2F98C1803711F483E5D8CFF7
:1073C000833549F4C0EAD1E08991AEDE21E0C73AC5
:1073D000D207D1F7B5C1863521F481E3A5DE80E37C
:1073E000C7CF833731F487E89FDE85E99DDE8EE1E4
:1073F000BFCF8536B9F4E0E0F0E083E095E080931C
:107400005700E89507B600FCFDCF90935700E8952C
:1074100007B600FCFDCFE058FF4FE11520E7F2076B
:1074200071F7A5CF823719F4E1E0F0E00EC08634A1
:1074300019F4E0E0F0E009C08E3419F4E3E0F0E084
:1074400004C0813539F4E2E0F0E089E08093570030
:1074500084918ECF823631F489E566DE80E064DE89
:1074600080E886CF823419F0873609F0D5C01092B3
:10747000AB011092AA0140DED82E3EDEE82E3CDEA3
:10748000C82F8BEB8C0F823010F08FE371CFF12C73
:10749000FD2810926F00D73609F045C081E1809336
:1074A0005700E8955701912CD1E0A114B10409F4DB
:1074B000AFC0C090B001D090B101E090B201F090A7
:1074C000B301C634B9F4E92DF0E0EC29FD2984912B
:1074D0002BDE992069F082E0C80ED11CE11CF11C62
:1074E000C092B001D092B101E092B201F092B3012A
:1074F0009D2615C0D701C601B695A7959795879586
:10750000B0D412DEE2E0CE0ED11CE11CF11CC09220
:10751000B001D092B101E092B201F092B301F1E07A
:10752000AF1AB108C2CF8090B0019090B101A09085
:10753000B201B090B301C63421F0C12CD12CD1E0FE
:1075400030C083E0F40180935700E89507B600FC53
:10755000FDCFF3CFC63461F5DD2039F14090B001A5
:107560005090B1016090B2017090B301C5DD2C2D37
:1075700030E0382BF2010901D0935700E89511242F
:10758000F2E04F0E511C611C711C4092B0015092F0
:10759000B1016092B2017092B301DD2621E0E21ADE
:1075A000F108E114F104B1F627C0A6DDC82EF5CF2D
:1075B000A3DD682F8091B0019091B101A091B2013B
:1075C000B091B301B695A7959795879552D4409100
:1075D000B0015091B1016091B2017091B3014E5F61
:1075E0005F4F6F4F7F4F4093B0015093B101609355
:1075F000B2017093B301D2CFC63441F485E0F401F7
:1076000080935700E89507B600FCFDCF8DE08CDD38
:1076100082E080936F0094C0833471F4C091B00114
:10762000D091B10169DD90E021E0FE010C012093D1
:107630005700E89511249BCE833601F5C090B00128
:10764000D090B101E090B201F090B30155DDF601A8
:10765000E16090E021E00C0120935700E8951124AF
:10766000F2E0CF0ED11CE11CF11CC092B001D0920F
:10767000B101E092B201F092B30179CE8D3661F49E
:10768000E091B001F091B10185E080935700E89559
:1076900007B600FCFDCF6BCE823551F4E091B0010E
:1076A000F091B101C591D4918D2F3EDD8C2F60CE2C
:1076B000843419F521DD682F8091B0019091B101DA
:1076C000A091B201B091B301B695A7959795879512
:1076D000D0D38091B0019091B101A091B201B0914D
:1076E000B3010296A11DB11D8093B0019093B10129
:1076F000A093B201B093B3013ACE8436F1F4C090B6
:10770000B001D090B101E090B201F090B301D70187
:10771000C601B695A79597958795A3D305DD22E079
:10772000C20ED11CE11CF11CC092B001D092B1017B
:10773000E092B201F092B30103C08B3109F0A5CE03
:1077400083E08093E9009091E8008091E8008E77D3
:107750008093E80095FD11C08091E80080FD04C091
:107760008EB38111F9CF15C08091E8008E77809398
:10777000E80003C08EB3882361F08091E80080FFA9
:10778000F9CF84E08093E9008091E8008B778093C3
:10779000E800DF91CF91FF90EF90DF90CF90BF9006
:1077A000AF909F908F907F906F905F904F900895D3
:1077B0008091000890910108109201081092000831
:1077C00044B714BE28E10FB6F894209360001092DD
:1077D00060000FBE41FD1AC040FF09C0E0E0F0E0CC
:1077E000259134912F3F3F4F11F0BCDC0FC043FF78
:1077F0000DC020910001309101018217930731F0F3
:10780000E0E0F0E085919491019679F7D2DC7894EC
:107810001092AB011092AA0180910201882369F0B5
:1078200073DD08D38091AA019091AB0181349F410F
:1078300010F010920201A8DCEFCF8091E00081608F
:107840008093E0008FDC80E090E00895292F30E005
:107850002230310539F02330310549F0213031052E
:1078600061F410C08EE390E020E531E01EC0882373
:1078700071F0813089F08230A1F080E090E020E06A
:1078800030E013C082E190E02EE831E00EC084E0E9
:1078900090E02CE431E009C084E290E026E231E09F
:1078A00004C08AE190E02AE031E0FA0131832083CC
:1078B00008958093E900EBEEF0E0808181608083A1
:1078C000EDEEF0E010826093EC0040838091EE00DA
:1078D000881F8827881F08958091B80187FD05C0FB
:1078E0008091E80080FF0DC010C08091E80082FD0B
:1078F00004C08EB38111F9CF08958091E8008B7791
:1079000007C08EB38111ECCF08958091E8008E7787
:107910008093E80008950F931F93CF93DF9341D096
:1079200048D0C8EDD0E088818F77888388818068CF
:10793000888388818F7D888319BC1EBA1092B60116
:1079400000EE10E0F80180818B7F80838881816068
:10795000888342E060E080E0ACDFE1EEF0E080812F
:107960008E7F8083E2EEF0E0808181608083808181
:1079700088608083F80180818E7F80838881806128
:107980008883DF91CF911F910F910895E7EDF0E08B
:107990008081816080838AE482BF81E08093B70127
:1079A000BACFE8EDF0E080818E7F80831092E20014
:1079B00008951092DA001092E10008951F920F923C
:1079C0000FB60F9211242F933F934F935F936F93B2
:1079D0007F938F939F93AF93BF93EF93FF93809188
:1079E000DA0080FF1BC08091D80080FF17C0809113
:1079F000DA008E7F8093DA008091D90080FF0BC07F
:107A000080E189BD82E189BD09B400FEFDCF81E03E
:107A10008EBB0FD203C019BC1EBA0BD28091E100FD
:107A200080FF17C08091E20080FF13C08091E200C8
:107A30008E7F8093E2008091E20080618093E2007B
:107A40008091D80080628093D80019BC85E08EBBFD
:107A5000F0D18091E10084FF2CC08091E20084FF8E
:107A600028C080E189BD82E189BD09B400FEFDCF57
:107A70008091D8008F7D8093D8008091E1008F7E27
:107A80008093E1008091E2008F7E8093E2008091FC
:107A9000E20081608093E2008091B601811104C010
:107AA0008091E30087FF02C084E001C081E08EBBCB
:107AB000C0D18091E10083FF21C08091E20083FF6B
:107AC0001DC08091E100877F8093E10082E08EBB42
:107AD0001092B6018091E1008E7F8093E100809149
:107AE000E2008E7F8093E2008091E20080618093CB
:107AF000E20042E060E080E0DCDE9BD1FF91EF91AC
:107B0000BF91AF919F918F917F916F915F914F91B5
:107B10003F912F910F900FBE0F901F9018952091BD
:107B2000BE013091BF012617370748F06115710576
:107B300039F42091E8002E772093E80001C0B901C4
:107B4000FC0120E061157105A1F18EB38823E1F1FC
:107B50008530E1F18091E80083FD34C08091E80038
:107B600082FF06C08091E80082FF26C080E0089571
:107B70008091E80080FFE6CF2091F3008091F20031
:107B800090E0922B6115710551F08830910538F421
:107B900021912093F100615071090196F3CF21E00A
:107BA000089709F020E08091E8008E778093E80044
:107BB000C9CF2111CACFD6CF8EB3882329F0853003
:107BC00089F604C081E0089582E0089583E0089575
:107BD0006115710529F42091E8002B772093E800C6
:107BE0006115710521F12EB3222351F1253051F198
:107BF0002091E80023FD20C02091E80022FFF3CF70
:107C0000FC01CF014091F3002091F20030E0342BD1
:107C1000232B09F38091F1008193CF016150710909
:107C200081F7D9CF8EB3882359F0853059F08091F0
:107C3000E80080FFF7CF02C081E0089580E008955A
:107C400082E0089583E008950F931F93CF93DF930D
:107C500000D0CDB7DEB7E8EBF1E08091F100819381
:107C600081E0E03CF807C9F721DB8091E80083FF61
:107C7000CBC02091B8013091B901832F90E08A30B8
:107C8000910508F0C1C0FC01EA5AF74CE4C0223863
:107C900009F0BAC08091BC0187708093E90090918F
:107CA000EB001092E9008091E800877F8093E80064
:107CB00095FB882780F98093F1001092F10082C033
:107CC000822F8D7F09F0A0C0223009F09DC08091E5
:107CD000BA01811124C02091BC01277009F494C01D
:107CE0002093E9008091EB0080FF19C08091EB00A8
:107CF000333011F4806211C080618093EB0081E029
:107D000090E0022E01C0880F0A94EAF78093EA00FF
:107D10001092EA008091EB0088608093EB00109253
:107D2000E9008091E800877F50C021116DC010915B
:107D3000BA011F770FB7F8948091E800877F80938E
:107D4000E800CADD8091E80080FFFCCF8091E3006D
:107D50008078812B8093E30080688093E300112377
:107D600011F083E001C082E08EBB0FBF4DC02058F0
:107D7000223008F049C0AE014F5F5F4F6091BC01F7
:107D80008091BA019091BB0161DD009709F43CC07C
:107D90002091E800277F2093E800BC0189819A8127
:107DA000BEDE8091E8008B778093E8002DC02038FC
:107DB00059F58091E800877F8093E8008091B601B3
:107DC0008093F1008091E8008E778093E80084DD55
:107DD0001BC0211119C09091BA019230A8F4809172
:107DE000E800877F8093E8009093B60175DD80916D
:107DF000B601811104C08091E30087FF02C084E0D6
:107E000001C081E08EBB46DA8091E80083FF0AC0A2
:107E10008091EB0080628093EB008091E800877F87
:107E20008093E8000F900F90DF91CF911F910F91F9
:107E300008950895CF938EB3882359F0C091E90037
:107E4000C7701092E9008091E80083FDFDDEC093C9
:107E5000E900CF910895EE0FFF1F0590F491E02DFA
:107E60000994F999FECF92BD81BDF89A992780B502
:107E70000895262FF999FECF1FBA92BD81BD20BD6E
:107E80000FB6F894FA9AF99A0FBE01960895F894ED
:027E9000FFCF22
:107E9200777701000000000000081A0349006E0015
:107EA2007400650067006500720020004C006100EC
:107EB20062007300000024034D006F00640075002F
:107EC2006C006F00200043006F006E0074007200AF
:107ED2006F006C006C00650072000000040309046E
:107EE20009023E0002010080320904000001020280
:107EF20001000524001001042402040524060001E7
:107F0200070582030800FF09040100020A000000BD
:107F12000705040210000107058302100001120187
:107F2200100102000008D016670A010002010001D8
:0A7F32004341544552494E410000FE
:040000030000700089
:00000001FF
